{
  "contractName": "Vock",
  "abi": [
    {
      "inputs": [
        {
          "internalType": "uint256",
          "name": "_idElec",
          "type": "uint256"
        }
      ],
      "name": "creerElection",
      "outputs": [],
      "stateMutability": "nonpayable",
      "type": "function"
    },
    {
      "inputs": [
        {
          "internalType": "uint256",
          "name": "_idElec",
          "type": "uint256"
        }
      ],
      "name": "enregistrer",
      "outputs": [],
      "stateMutability": "nonpayable",
      "type": "function"
    },
    {
      "inputs": [
        {
          "internalType": "uint256",
          "name": "_idElec",
          "type": "uint256"
        },
        {
          "internalType": "address",
          "name": "_elect",
          "type": "address"
        }
      ],
      "name": "autoriser",
      "outputs": [],
      "stateMutability": "nonpayable",
      "type": "function"
    },
    {
      "inputs": [
        {
          "internalType": "uint256",
          "name": "_idElec",
          "type": "uint256"
        },
        {
          "internalType": "uint256",
          "name": "_idCand",
          "type": "uint256"
        },
        {
          "internalType": "string",
          "name": "_nomCand",
          "type": "string"
        }
      ],
      "name": "ajouterCandidat",
      "outputs": [],
      "stateMutability": "nonpayable",
      "type": "function"
    },
    {
      "inputs": [
        {
          "internalType": "uint256",
          "name": "_idElec",
          "type": "uint256"
        }
      ],
      "name": "lancerElection",
      "outputs": [],
      "stateMutability": "nonpayable",
      "type": "function"
    },
    {
      "inputs": [
        {
          "internalType": "uint256",
          "name": "_idElec",
          "type": "uint256"
        },
        {
          "internalType": "uint256",
          "name": "_idCand",
          "type": "uint256"
        }
      ],
      "name": "voter",
      "outputs": [],
      "stateMutability": "nonpayable",
      "type": "function"
    },
    {
      "inputs": [
        {
          "internalType": "uint256",
          "name": "_idElec",
          "type": "uint256"
        }
      ],
      "name": "getVoteElecteur",
      "outputs": [
        {
          "internalType": "uint256",
          "name": "",
          "type": "uint256"
        }
      ],
      "stateMutability": "view",
      "type": "function",
      "constant": true
    },
    {
      "inputs": [
        {
          "internalType": "uint256",
          "name": "_idElec",
          "type": "uint256"
        },
        {
          "internalType": "uint256",
          "name": "_idCand",
          "type": "uint256"
        }
      ],
      "name": "getNbreVotesCandidat",
      "outputs": [
        {
          "internalType": "uint256",
          "name": "",
          "type": "uint256"
        }
      ],
      "stateMutability": "view",
      "type": "function",
      "constant": true
    },
    {
      "inputs": [
        {
          "internalType": "uint256",
          "name": "_idElec",
          "type": "uint256"
        }
      ],
      "name": "terminerElection",
      "outputs": [],
      "stateMutability": "nonpayable",
      "type": "function"
    }
  ],
  "bytecode": "0x608060405234801561001057600080fd5b50612093806100206000396000f3fe608060405234801561001057600080fd5b50600436106100935760003560e01c8063a10d964e11610066578063a10d964e14610108578063a5b4138014610138578063c1037a9a14610168578063d3856f3b14610184578063d9c1eb06146101a057610093565b80631cba92ad1461009857806326ece3c7146100b457806340787599146100d05780636cd3d2ac146100ec575b600080fd5b6100b260048036038101906100ad91906113eb565b6101bc565b005b6100ce60048036038101906100c9919061155e565b6102da565b005b6100ea60048036038101906100e591906113eb565b61053b565b005b6101066004803603810190610101919061162b565b6106aa565b005b610122600480360381019061011d91906113eb565b61099e565b60405161012f919061167a565b60405180910390f35b610152600480360381019061014d9190611695565b610ad6565b60405161015f919061167a565b60405180910390f35b610182600480360381019061017d91906113eb565b610c0f565b005b61019e60048036038101906101999190611695565b610d9b565b005b6101ba60048036038101906101b591906113eb565b611159565b005b600060038111156101d0576101cf6116d5565b5b60008083815260200190815260200160002060010160009054906101000a900460ff166003811115610205576102046116d5565b5b14610245576040517f08c379a000000000000000000000000000000000000000000000000000000000815260040161023c90611787565b60405180910390fd5b600160008083815260200190815260200160002060010160006101000a81548160ff0219169083600381111561027e5761027d6116d5565b5b02179055503360008083815260200190815260200160002060010160016101000a81548173ffffffffffffffffffffffffffffffffffffffff021916908373ffffffffffffffffffffffffffffffffffffffff16021790555050565b82600160038111156102ef576102ee6116d5565b5b60008083815260200190815260200160002060010160009054906101000a900460ff166003811115610324576103236116d5565b5b14610364576040517f08c379a000000000000000000000000000000000000000000000000000000000815260040161035b906117f3565b60405180910390fd5b833373ffffffffffffffffffffffffffffffffffffffff1660008083815260200190815260200160002060010160019054906101000a900473ffffffffffffffffffffffffffffffffffffffff1673ffffffffffffffffffffffffffffffffffffffff1614610408576040517f08c379a00000000000000000000000000000000000000000000000000000000081526004016103ff90611885565b60405180910390fd5b60001515600080878152602001908152602001600020600301600086815260200190815260200160002060020160009054906101000a900460ff16151514610485576040517f08c379a000000000000000000000000000000000000000000000000000000000815260040161047c9061193d565b60405180910390fd5b82600080878152602001908152602001600020600301600086815260200190815260200160002060000190805190602001906104c29291906112fe565b506001600080878152602001908152602001600020600301600086815260200190815260200160002060020160006101000a81548160ff02191690831515021790555060008060008781526020019081526020016000206003016000868152602001908152602001600020600101819055505050505050565b803373ffffffffffffffffffffffffffffffffffffffff1660008083815260200190815260200160002060010160019054906101000a900473ffffffffffffffffffffffffffffffffffffffff1673ffffffffffffffffffffffffffffffffffffffff16146105df576040517f08c379a00000000000000000000000000000000000000000000000000000000081526004016105d690611885565b60405180910390fd5b600260038111156105f3576105f26116d5565b5b60008084815260200190815260200160002060010160009054906101000a900460ff166003811115610628576106276116d5565b5b14610668576040517f08c379a000000000000000000000000000000000000000000000000000000000815260040161065f906119cf565b60405180910390fd5b600360008084815260200190815260200160002060010160006101000a81548160ff021916908360038111156106a1576106a06116d5565b5b02179055505050565b81600160038111156106bf576106be6116d5565b5b60008083815260200190815260200160002060010160009054906101000a900460ff1660038111156106f4576106f36116d5565b5b14610734576040517f08c379a000000000000000000000000000000000000000000000000000000000815260040161072b906117f3565b60405180910390fd5b823373ffffffffffffffffffffffffffffffffffffffff1660008083815260200190815260200160002060010160019054906101000a900473ffffffffffffffffffffffffffffffffffffffff1673ffffffffffffffffffffffffffffffffffffffff16146107d8576040517f08c379a00000000000000000000000000000000000000000000000000000000081526004016107cf90611885565b60405180910390fd5b6001151560008086815260200190815260200160002060020160008573ffffffffffffffffffffffffffffffffffffffff1673ffffffffffffffffffffffffffffffffffffffff16815260200190815260200160002060000160019054906101000a900460ff16151514610881576040517f08c379a000000000000000000000000000000000000000000000000000000000815260040161087890611a61565b60405180910390fd5b6000151560008086815260200190815260200160002060020160008573ffffffffffffffffffffffffffffffffffffffff1673ffffffffffffffffffffffffffffffffffffffff16815260200190815260200160002060000160009054906101000a900460ff1615151461092a576040517f08c379a000000000000000000000000000000000000000000000000000000000815260040161092190611acd565b60405180910390fd5b600160008086815260200190815260200160002060020160008573ffffffffffffffffffffffffffffffffffffffff1673ffffffffffffffffffffffffffffffffffffffff16815260200190815260200160002060000160006101000a81548160ff02191690831515021790555050505050565b6000600260038111156109b4576109b36116d5565b5b60008084815260200190815260200160002060010160009054906101000a900460ff1660038111156109e9576109e86116d5565b5b1480610a3a5750600380811115610a0357610a026116d5565b5b60008084815260200190815260200160002060010160009054906101000a900460ff166003811115610a3857610a376116d5565b5b145b610a79576040517f08c379a0000000000000000000000000000000000000000000000000000000008152600401610a7090611b39565b60405180910390fd5b60008083815260200190815260200160002060020160003373ffffffffffffffffffffffffffffffffffffffff1673ffffffffffffffffffffffffffffffffffffffff168152602001908152602001600020600101549050919050565b6000600380811115610aeb57610aea6116d5565b5b60008085815260200190815260200160002060010160009054906101000a900460ff166003811115610b2057610b1f6116d5565b5b14610b60576040517f08c379a0000000000000000000000000000000000000000000000000000000008152600401610b5790611ba5565b60405180910390fd5b60011515600080858152602001908152602001600020600301600084815260200190815260200160002060020160009054906101000a900460ff16151514610bdd576040517f08c379a0000000000000000000000000000000000000000000000000000000008152600401610bd490611c37565b60405180910390fd5b600080848152602001908152602001600020600301600083815260200190815260200160002060010154905092915050565b8060016003811115610c2457610c236116d5565b5b60008083815260200190815260200160002060010160009054906101000a900460ff166003811115610c5957610c586116d5565b5b14610c99576040517f08c379a0000000000000000000000000000000000000000000000000000000008152600401610c90906117f3565b60405180910390fd5b813373ffffffffffffffffffffffffffffffffffffffff1660008083815260200190815260200160002060010160019054906101000a900473ffffffffffffffffffffffffffffffffffffffff1673ffffffffffffffffffffffffffffffffffffffff1614610d3d576040517f08c379a0000000000000000000000000000000000000000000000000000000008152600401610d3490611885565b60405180910390fd5b600260008085815260200190815260200160002060010160006101000a81548160ff02191690836003811115610d7657610d756116d5565b5b0217905550600080600085815260200190815260200160002060000181905550505050565b8160026003811115610db057610daf6116d5565b5b60008083815260200190815260200160002060010160009054906101000a900460ff166003811115610de557610de46116d5565b5b14610e25576040517f08c379a0000000000000000000000000000000000000000000000000000000008152600401610e1c90611cc9565b60405180910390fd5b6001151560008085815260200190815260200160002060020160003373ffffffffffffffffffffffffffffffffffffffff1673ffffffffffffffffffffffffffffffffffffffff16815260200190815260200160002060000160019054906101000a900460ff16151514610ece576040517f08c379a0000000000000000000000000000000000000000000000000000000008152600401610ec590611d5b565b60405180910390fd5b6001151560008085815260200190815260200160002060020160003373ffffffffffffffffffffffffffffffffffffffff1673ffffffffffffffffffffffffffffffffffffffff16815260200190815260200160002060000160009054906101000a900460ff16151514610f77576040517f08c379a0000000000000000000000000000000000000000000000000000000008152600401610f6e90611ded565b60405180910390fd5b600080600085815260200190815260200160002060020160003373ffffffffffffffffffffffffffffffffffffffff1673ffffffffffffffffffffffffffffffffffffffff168152602001908152602001600020600101541461100f576040517f08c379a000000000000000000000000000000000000000000000000000000000815260040161100690611e59565b60405180910390fd5b60011515600080858152602001908152602001600020600301600084815260200190815260200160002060020160009054906101000a900460ff1615151461108c576040517f08c379a000000000000000000000000000000000000000000000000000000000815260040161108390611eeb565b60405180910390fd5b8160008085815260200190815260200160002060020160003373ffffffffffffffffffffffffffffffffffffffff1673ffffffffffffffffffffffffffffffffffffffff168152602001908152602001600020600101819055506001600080858152602001908152602001600020600301600084815260200190815260200160002060010160008282546111209190611f3a565b925050819055506001600080858152602001908152602001600020600001600082825461114d9190611f3a565b92505081905550505050565b806001600381111561116e5761116d6116d5565b5b60008083815260200190815260200160002060010160009054906101000a900460ff1660038111156111a3576111a26116d5565b5b146111e3576040517f08c379a00000000000000000000000000000000000000000000000000000000081526004016111da906117f3565b60405180910390fd5b6000151560008084815260200190815260200160002060020160003373ffffffffffffffffffffffffffffffffffffffff1673ffffffffffffffffffffffffffffffffffffffff16815260200190815260200160002060000160019054906101000a900460ff1615151461128c576040517f08c379a000000000000000000000000000000000000000000000000000000000815260040161128390611fdc565b60405180910390fd5b600160008084815260200190815260200160002060020160003373ffffffffffffffffffffffffffffffffffffffff1673ffffffffffffffffffffffffffffffffffffffff16815260200190815260200160002060000160016101000a81548160ff0219169083151502179055505050565b82805461130a9061202b565b90600052602060002090601f01602090048101928261132c5760008555611373565b82601f1061134557805160ff1916838001178555611373565b82800160010185558215611373579182015b82811115611372578251825591602001919060010190611357565b5b5090506113809190611384565b5090565b5b8082111561139d576000816000905550600101611385565b5090565b6000604051905090565b600080fd5b600080fd5b6000819050919050565b6113c8816113b5565b81146113d357600080fd5b50565b6000813590506113e5816113bf565b92915050565b600060208284031215611401576114006113ab565b5b600061140f848285016113d6565b91505092915050565b600080fd5b600080fd5b6000601f19601f8301169050919050565b7f4e487b7100000000000000000000000000000000000000000000000000000000600052604160045260246000fd5b61146b82611422565b810181811067ffffffffffffffff8211171561148a57611489611433565b5b80604052505050565b600061149d6113a1565b90506114a98282611462565b919050565b600067ffffffffffffffff8211156114c9576114c8611433565b5b6114d282611422565b9050602081019050919050565b82818337600083830152505050565b60006115016114fc846114ae565b611493565b90508281526020810184848401111561151d5761151c61141d565b5b6115288482856114df565b509392505050565b600082601f83011261154557611544611418565b5b81356115558482602086016114ee565b91505092915050565b600080600060608486031215611577576115766113ab565b5b6000611585868287016113d6565b9350506020611596868287016113d6565b925050604084013567ffffffffffffffff8111156115b7576115b66113b0565b5b6115c386828701611530565b9150509250925092565b600073ffffffffffffffffffffffffffffffffffffffff82169050919050565b60006115f8826115cd565b9050919050565b611608816115ed565b811461161357600080fd5b50565b600081359050611625816115ff565b92915050565b60008060408385031215611642576116416113ab565b5b6000611650858286016113d6565b925050602061166185828601611616565b9150509250929050565b611674816113b5565b82525050565b600060208201905061168f600083018461166b565b92915050565b600080604083850312156116ac576116ab6113ab565b5b60006116ba858286016113d6565b92505060206116cb858286016113d6565b9150509250929050565b7f4e487b7100000000000000000000000000000000000000000000000000000000600052602160045260246000fd5b600082825260208201905092915050565b7f436574746520656c656374696f6e206e276573742070617320646973706f6e6960008201527f626c6520706f7572206c61206372656174696f6e000000000000000000000000602082015250565b6000611771603483611704565b915061177c82611715565b604082019050919050565b600060208201905081810360008301526117a081611764565b9050919050565b7f436574746520656c656374696f6e206e27657374207061732063726565650000600082015250565b60006117dd601e83611704565b91506117e8826117a7565b602082019050919050565b6000602082019050818103600083015261180c816117d0565b9050919050565b7f566f7573206e276574657320706173206c27617574657572206465206365747460008201527f6520656c656374696f6e00000000000000000000000000000000000000000000602082015250565b600061186f602a83611704565b915061187a82611813565b604082019050919050565b6000602082019050818103600083015261189e81611862565b9050919050565b7f556e2063616e6469646174206176656320636574206964656e74696669616e7460008201527f206573742064656a6120656e7265676974726520706f7572206365747465206560208201527f6c656374696f6e00000000000000000000000000000000000000000000000000604082015250565b6000611927604783611704565b9150611932826118a5565b606082019050919050565b600060208201905081810360008301526119568161191a565b9050919050565b7f50617320706f737369626c65206465207465726d696e657220756e6520656c6560008201527f6374696f6e20717569206e276573742070617320656e20636f75727300000000602082015250565b60006119b9603c83611704565b91506119c48261195d565b604082019050919050565b600060208201905081810360008301526119e8816119ac565b9050919050565b7f566f757320646576657a206574726520656e726567697374726520706f75722060008201527f65747265206175746f7269736500000000000000000000000000000000000000602082015250565b6000611a4b602d83611704565b9150611a56826119ef565b604082019050919050565b60006020820190508181036000830152611a7a81611a3e565b9050919050565b7f436520636f6d70746520706575742064656a6120766f74657200000000000000600082015250565b6000611ab7601983611704565b9150611ac282611a81565b602082019050919050565b60006020820190508181036000830152611ae681611aaa565b9050919050565b7f566f7465206e6f6e20646973706f6e69626c6500000000000000000000000000600082015250565b6000611b23601383611704565b9150611b2e82611aed565b602082019050919050565b60006020820190508181036000830152611b5281611b16565b9050919050565b7f4c27656c656374696f6e206e2765737420706173207465726d696e6565000000600082015250565b6000611b8f601d83611704565b9150611b9a82611b59565b602082019050919050565b60006020820190508181036000830152611bbe81611b82565b9050919050565b7f43652063616e6469646174206e276573742070617320656e726567697472652060008201527f706f757220636574746520656c656374696f6e00000000000000000000000000602082015250565b6000611c21603383611704565b9150611c2c82611bc5565b604082019050919050565b60006020820190508181036000830152611c5081611c14565b9050919050565b7f436574746520656c656374696f6e206e276573742070617320656e20636f757260008201527f7300000000000000000000000000000000000000000000000000000000000000602082015250565b6000611cb3602183611704565b9150611cbe82611c57565b604082019050919050565b60006020820190508181036000830152611ce281611ca6565b9050919050565b7f566f757320646576657a206574726520656e726567697374726520612063657460008201527f746520656c656374696f6e20706f757220766f74657200000000000000000000602082015250565b6000611d45603683611704565b9150611d5082611ce9565b604082019050919050565b60006020820190508181036000830152611d7481611d38565b9050919050565b7f566f7573206e276176657a20706173206c652064726f697420646520766f746560008201527f7220706f757220636574746520656c656374696f6e0000000000000000000000602082015250565b6000611dd7603583611704565b9150611de282611d7b565b604082019050919050565b60006020820190508181036000830152611e0681611dca565b9050919050565b7f436520636f6d70746520612064656a6120766f74650000000000000000000000600082015250565b6000611e43601583611704565b9150611e4e82611e0d565b602082019050919050565b60006020820190508181036000830152611e7281611e36565b9050919050565b7f43652063616e6469646174206e276573742070617320656e726567697374726560008201527f20706f757220636574746520656c656374696f6e000000000000000000000000602082015250565b6000611ed5603483611704565b9150611ee082611e79565b604082019050919050565b60006020820190508181036000830152611f0481611ec8565b9050919050565b7f4e487b7100000000000000000000000000000000000000000000000000000000600052601160045260246000fd5b6000611f45826113b5565b9150611f50836113b5565b9250827fffffffffffffffffffffffffffffffffffffffffffffffffffffffffffffffff03821115611f8557611f84611f0b565b5b828201905092915050565b7f456c6563746575722064656a6120656e72656769737472650000000000000000600082015250565b6000611fc6601883611704565b9150611fd182611f90565b602082019050919050565b60006020820190508181036000830152611ff581611fb9565b9050919050565b7f4e487b7100000000000000000000000000000000000000000000000000000000600052602260045260246000fd5b6000600282049050600182168061204357607f821691505b6020821081141561205757612056611ffc565b5b5091905056fea26469706673582212208fcd2b5d639a53ae39179577aad36f46420c3d808ccee4a262471a79a4b3ee7964736f6c634300080b0033",
  "immutableReferences": {},
  "source": "// SPDX-License-Identifier: MIT\r\npragma solidity ^0.8.11;\r\n\r\n/**\r\n * @title Vock\r\n * @dev Implmente le mecanisme de vote\r\n */\r\ncontract Vock {\r\n    // Diffrents statuts d'une lection\r\n    enum Statut {\r\n        Initial, // L'lection est consire comme inexistante\r\n        Cree, //    Quand quelqu'un cre une lection. Enregistrement des candidats\r\n        EnCours, // Lorsque l'lection est lance. Il n'est plus possible d'enregistrer des candidats\r\n        Termine //  Lorsque l'lection est termine. Plus personne ne peut voter.\r\n    }\r\n\r\n    // La structure reprsentant un candidat\r\n    struct Candidat {\r\n        string nom; //         Le nom du candidat\r\n        uint256 nbreVotes; //  Le nombre de personnes ayant vots pour lui\r\n        bool estEnregistre; // Pour savoir si le candidat est enregistr pour l'lection\r\n    }\r\n\r\n    // La structure reprsentant un lecteur\r\n    struct Electeur {\r\n        bool peutVoter; //     Dtermine si un lecteur peut voter ou pas\r\n        bool estEnregistre; // Pour savoir si l'lecteur est enregistr pour l'lection\r\n        uint256 vote; //       L'identifiant du candidat pour lequel il a vot\r\n    }\r\n\r\n    // La structure reprsentant une lection\r\n    struct Election {\r\n        uint256 totalVotes; //                     Nombre total de vote pour cette lection\r\n        Statut statut; //                          Statut de l'lection. Par dfaut c'est Initial\r\n        address auteur; //                         Celui qui a cr l'lection\r\n        mapping(address => Electeur) electeurs; // Tous les electeurs pour cette lection\r\n        mapping(uint256 => Candidat) candidats; // Liste des candidats pour cette lection\r\n    }\r\n\r\n    // elections : pour stocker les lections\r\n    mapping(uint256 => Election) private elections;\r\n\r\n    // Un modifier pour vrifier si l'lection est en cours\r\n    modifier electionEnCours(uint256 _idElec) {\r\n        require(\r\n            elections[_idElec].statut == Statut.EnCours,\r\n            \"Cette election n'est pas en cours\"\r\n        );\r\n        _;\r\n    }\r\n\r\n    // Un modifier pour vrifier si l'lection est cre\r\n    modifier electionCreee(uint256 _idElec) {\r\n        require(\r\n            elections[_idElec].statut == Statut.Cree,\r\n            \"Cette election n'est pas creee\"\r\n        );\r\n        _;\r\n    }\r\n\r\n    // Un modifier pour vrifier si l'adresse correspond  celle de l'auteur de l'lection\r\n    modifier auteurSeulement(uint256 _idElec) {\r\n        require(\r\n            elections[_idElec].auteur == msg.sender,\r\n            \"Vous n'etes pas l'auteur de cette election\"\r\n        );\r\n        _;\r\n    }\r\n\r\n    /**\r\n     * @dev Crer une lection.\r\n     * @param _idElec l'identifiant de l'lection  crer\r\n     */\r\n    function creerElection(uint256 _idElec) public {\r\n        require(\r\n            elections[_idElec].statut == Statut.Initial,\r\n            \"Cette election n'est pas disponible pour la creation\"\r\n        );\r\n        elections[_idElec].statut = Statut.Cree;\r\n        elections[_idElec].auteur = msg.sender;\r\n    }\r\n\r\n    /**\r\n     * @dev Enregistrer un lecteur dans une lection.\r\n     * @param _idElec l'identifiant de l'lection\r\n     */\r\n    function enregistrer(uint256 _idElec) electionCreee(_idElec) public {\r\n        require(\r\n            elections[_idElec].electeurs[msg.sender].estEnregistre == false,\r\n            \"Electeur deja enregistre\"\r\n        );\r\n        elections[_idElec].electeurs[msg.sender].estEnregistre = true;\r\n    }\r\n\r\n    /**\r\n     * @dev Autoriser un lecteur  voter dans une lection.\r\n     * @param _idElec l'identifiant de l'lection\r\n     * @param _elect l'adresse de l'lecteur\r\n     */\r\n    function autoriser(uint256 _idElec, address _elect)\r\n        public\r\n        electionCreee(_idElec)\r\n        auteurSeulement(_idElec)\r\n    {\r\n        require(\r\n            elections[_idElec].electeurs[_elect].estEnregistre == true,\r\n            \"Vous devez etre enregistre pour etre autorise\"\r\n        );\r\n        require(\r\n            elections[_idElec].electeurs[_elect].peutVoter == false,\r\n            \"Ce compte peut deja voter\"\r\n        );\r\n        elections[_idElec].electeurs[_elect].peutVoter = true;\r\n    }\r\n\r\n    /**\r\n     * @dev Ajouter un candidat sur la liste lectorale.\r\n     * @param _idElec l'identifiant de l'lection\r\n     * @param _idCand l'identifiant du candidat\r\n     * @param _nomCand le nom du candidat\r\n     */\r\n    function ajouterCandidat(\r\n        uint256 _idElec,\r\n        uint256 _idCand,\r\n        string memory _nomCand\r\n    ) public electionCreee(_idElec) auteurSeulement(_idElec) {\r\n        require(\r\n            elections[_idElec].candidats[_idCand].estEnregistre == false,\r\n            \"Un candidat avec cet identifiant est deja enregitre pour cette election\"\r\n        );\r\n        elections[_idElec].candidats[_idCand].nom = _nomCand;\r\n        elections[_idElec].candidats[_idCand].estEnregistre = true;\r\n        elections[_idElec].candidats[_idCand].nbreVotes = 0;\r\n    }\r\n\r\n    /**\r\n     * @dev Lancer une lection.\r\n     * @param _idElec l'identifiant de l'lection\r\n     */\r\n    function lancerElection(uint256 _idElec) electionCreee(_idElec) auteurSeulement(_idElec) public{\r\n        elections[_idElec].statut = Statut.EnCours;\r\n        elections[_idElec].totalVotes = 0;\r\n    }\r\n\r\n    /**\r\n     * @dev Enregistrer le vote d'un lecteur.\r\n     * @param _idElec l'identifiant de l'lection o se trouve le candidat\r\n     * @param _idCand l'identifiant du candidat dans l'lection\r\n     */\r\n    function voter(uint256 _idElec, uint256 _idCand)\r\n        public\r\n        electionEnCours(_idElec)\r\n    {\r\n        require(\r\n            elections[_idElec].electeurs[msg.sender].estEnregistre == true,\r\n            \"Vous devez etre enregistre a cette election pour voter\"\r\n        );\r\n        require(\r\n            elections[_idElec].electeurs[msg.sender].peutVoter == true,\r\n            \"Vous n'avez pas le droit de voter pour cette election\"\r\n        );\r\n        require(\r\n            elections[_idElec].electeurs[msg.sender].vote == 0,\r\n            \"Ce compte a deja vote\"\r\n        );\r\n        require(\r\n            elections[_idElec].candidats[_idCand].estEnregistre == true,\r\n            \"Ce candidat n'est pas enregistre pour cette election\"\r\n        );\r\n        elections[_idElec].electeurs[msg.sender].vote = _idCand;\r\n        elections[_idElec].candidats[_idCand].nbreVotes += 1;\r\n        elections[_idElec].totalVotes += 1;\r\n    }\r\n\r\n    /**\r\n     * @dev Rcuprer le vote d'un lecteur en fournissant l'identifiant de l'lection\r\n     * @param _idElec l'identifiant de l'lection\r\n     * @return l'identifiant du candidat vot\r\n     */\r\n    function getVoteElecteur(uint256 _idElec) public view returns (uint256) {\r\n        require(\r\n            elections[_idElec].statut == Statut.EnCours ||\r\n                elections[_idElec].statut == Statut.Termine,\r\n            \"Vote non disponible\"\r\n        );\r\n        return elections[_idElec].electeurs[msg.sender].vote;\r\n    }\r\n\r\n    /**\r\n     * @dev Rcuprer le nombre de votes d'un candidat\r\n     * @param _idElec l'identifiant de l'lection\r\n     * @param _idCand l'identifiant du candidat\r\n     * @return le nombre de votes du candidat\r\n     */\r\n    function getNbreVotesCandidat(uint256 _idElec, uint256 _idCand)\r\n        public\r\n        view\r\n        returns (uint256)\r\n    {\r\n        require(\r\n            elections[_idElec].statut == Statut.Termine,\r\n            \"L'election n'est pas terminee\"\r\n        );\r\n        require(\r\n            elections[_idElec].candidats[_idCand].estEnregistre == true,\r\n            \"Ce candidat n'est pas enregitre pour cette election\"\r\n        );\r\n        return elections[_idElec].candidats[_idCand].nbreVotes;\r\n    }\r\n\r\n    /**\r\n     * @dev Terminer une lection.\r\n     * @param _idElec l'identifiant de l'lection\r\n     */\r\n    function terminerElection(uint256 _idElec) public auteurSeulement(_idElec) {\r\n        require(\r\n            elections[_idElec].statut == Statut.EnCours,\r\n            \"Pas possible de terminer une election qui n'est pas en cours\"\r\n        );\r\n        elections[_idElec].statut = Statut.Termine;\r\n    }\r\n}\r\n",
  "sourcePath": "c:\\Users\\Fabmanager\\Coding\\Projects\\vock\\contracts\\Vock.sol",
  "compiler": {
    "name": "solc",
    "version": "0.8.11+commit.d7f03943.Emscripten.clang"
  },
  "schemaVersion": "3.4.4",
  "updatedAt": "2022-02-26T11:00:33.515Z",
  "networkType": "ethereum",
  "devdoc": {
    "details": "Implmente le mecanisme de vote",
    "kind": "dev",
    "methods": {
      "ajouterCandidat(uint256,uint256,string)": {
        "details": "Ajouter un candidat sur la liste lectorale.",
        "params": {
          "_idCand": "l'identifiant du candidat",
          "_idElec": "l'identifiant de l'lection",
          "_nomCand": "le nom du candidat"
        }
      },
      "autoriser(uint256,address)": {
        "details": "Autoriser un lecteur  voter dans une lection.",
        "params": {
          "_elect": "l'adresse de l'lecteur",
          "_idElec": "l'identifiant de l'lection"
        }
      },
      "creerElection(uint256)": {
        "details": "Crer une lection.",
        "params": {
          "_idElec": "l'identifiant de l'lection  crer"
        }
      },
      "enregistrer(uint256)": {
        "details": "Enregistrer un lecteur dans une lection.",
        "params": {
          "_idElec": "l'identifiant de l'lection"
        }
      },
      "getNbreVotesCandidat(uint256,uint256)": {
        "details": "Rcuprer le nombre de votes d'un candidat",
        "params": {
          "_idCand": "l'identifiant du candidat",
          "_idElec": "l'identifiant de l'lection"
        },
        "returns": {
          "_0": "le nombre de votes du candidat"
        }
      },
      "getVoteElecteur(uint256)": {
        "details": "Rcuprer le vote d'un lecteur en fournissant l'identifiant de l'lection",
        "params": {
          "_idElec": "l'identifiant de l'lection"
        },
        "returns": {
          "_0": "l'identifiant du candidat vot"
        }
      },
      "lancerElection(uint256)": {
        "details": "Lancer une lection.",
        "params": {
          "_idElec": "l'identifiant de l'lection"
        }
      },
      "terminerElection(uint256)": {
        "details": "Terminer une lection.",
        "params": {
          "_idElec": "l'identifiant de l'lection"
        }
      },
      "voter(uint256,uint256)": {
        "details": "Enregistrer le vote d'un lecteur.",
        "params": {
          "_idCand": "l'identifiant du candidat dans l'lection",
          "_idElec": "l'identifiant de l'lection o se trouve le candidat"
        }
      }
    },
    "title": "Vock",
    "version": 1
  },
  "userdoc": {
    "kind": "user",
    "methods": {},
    "version": 1
  }
}