{
  "contractName": "Vock",
  "abi": [
    {
      "inputs": [
        {
          "internalType": "uint256",
          "name": "_election",
          "type": "uint256"
        },
        {
          "internalType": "uint256",
          "name": "_candidat",
          "type": "uint256"
        }
      ],
      "name": "voter",
      "outputs": [],
      "stateMutability": "nonpayable",
      "type": "function"
    },
    {
      "inputs": [
        {
          "internalType": "uint256",
          "name": "_election",
          "type": "uint256"
        }
      ],
      "name": "totalVotes",
      "outputs": [
        {
          "internalType": "uint256",
          "name": "nbre",
          "type": "uint256"
        }
      ],
      "stateMutability": "view",
      "type": "function",
      "constant": true
    },
    {
      "inputs": [
        {
          "internalType": "uint256",
          "name": "_election",
          "type": "uint256"
        }
      ],
      "name": "getVote",
      "outputs": [
        {
          "internalType": "uint256",
          "name": "",
          "type": "uint256"
        }
      ],
      "stateMutability": "view",
      "type": "function",
      "constant": true
    },
    {
      "inputs": [
        {
          "internalType": "uint256",
          "name": "_election",
          "type": "uint256"
        },
        {
          "internalType": "uint256",
          "name": "_candidat",
          "type": "uint256"
        }
      ],
      "name": "nbreVotes",
      "outputs": [
        {
          "internalType": "uint256",
          "name": "nbre",
          "type": "uint256"
        }
      ],
      "stateMutability": "view",
      "type": "function",
      "constant": true
    }
  ],
  "bytecode": "0x608060405234801561001057600080fd5b50610640806100206000396000f3fe608060405234801561001057600080fd5b506004361061004c5760003560e01c806319e6e158146100515780635a55c1f0146100815780636f8f2a0e146100b1578063d3856f3b146100e1575b600080fd5b61006b6004803603810190610066919061044f565b6100fd565b604051610078919061048b565b60405180910390f35b61009b6004803603810190610096919061044f565b610167565b6040516100a8919061048b565b60405180910390f35b6100cb60048036038101906100c691906104a6565b610271565b6040516100d8919061048b565b60405180910390f35b6100fb60048036038101906100f691906104a6565b61030c565b005b600080600090505b600080549050811015610161578260008281548110610127576101266104e6565b5b906000526020600020906003020160020154141561014e57818061014a90610544565b9250505b808061015990610544565b915050610105565b50919050565b600080600090505b600080549050811015610266578260008281548110610191576101906104e6565b5b90600052602060002090600302016002015414801561022057503373ffffffffffffffffffffffffffffffffffffffff16600082815481106101d6576101d56104e6565b5b906000526020600020906003020160000160009054906101000a900473ffffffffffffffffffffffffffffffffffffffff1673ffffffffffffffffffffffffffffffffffffffff16145b156102535760008181548110610239576102386104e6565b5b90600052602060002090600302016001015491505061026c565b808061025e90610544565b91505061016f565b50600090505b919050565b600080600090505b60008054905081101561030557836000828154811061029b5761029a6104e6565b5b9060005260206000209060030201600201541480156102de575082600082815481106102ca576102c96104e6565b5b906000526020600020906003020160010154145b156102f25781806102ee90610544565b9250505b80806102fd90610544565b915050610279565b5092915050565b600061031783610167565b14610357576040517f08c379a000000000000000000000000000000000000000000000000000000000815260040161034e906105ea565b60405180910390fd5b600060405180606001604052803373ffffffffffffffffffffffffffffffffffffffff16815260200183815260200184815250908060018154018082558091505060019003906000526020600020906003020160009091909190915060008201518160000160006101000a81548173ffffffffffffffffffffffffffffffffffffffff021916908373ffffffffffffffffffffffffffffffffffffffff160217905550602082015181600101556040820151816002015550505050565b600080fd5b6000819050919050565b61042c81610419565b811461043757600080fd5b50565b60008135905061044981610423565b92915050565b60006020828403121561046557610464610414565b5b60006104738482850161043a565b91505092915050565b61048581610419565b82525050565b60006020820190506104a0600083018461047c565b92915050565b600080604083850312156104bd576104bc610414565b5b60006104cb8582860161043a565b92505060206104dc8582860161043a565b9150509250929050565b7f4e487b7100000000000000000000000000000000000000000000000000000000600052603260045260246000fd5b7f4e487b7100000000000000000000000000000000000000000000000000000000600052601160045260246000fd5b600061054f82610419565b91507fffffffffffffffffffffffffffffffffffffffffffffffffffffffffffffffff82141561058257610581610515565b5b600182019050919050565b600082825260208201905092915050565b7f436520636f6d70746520612064656a6120766f74650000000000000000000000600082015250565b60006105d460158361058d565b91506105df8261059e565b602082019050919050565b60006020820190508181036000830152610603816105c7565b905091905056fea2646970667358221220d1ed65119303701362e40077554c657f6fa19eab6b10c5c27d7ae3480d16f3fb64736f6c634300080b0033",
  "immutableReferences": {},
  "source": "// SPDX-License-Identifier: GPL-3.0\npragma solidity >=0.7.0 <0.9.0;\n\ncontract Vock {\n\n    struct Vote {\n        address electeur;\n        uint candidat;\n        uint election;\n    }\n\n    Vote[] private votes;\n\n    function voter(uint _election, uint _candidat) public {\n        require(getVote(_election) == 0, \"Ce compte a deja vote\");\n        votes.push(Vote({\n            electeur: msg.sender,\n            candidat: _candidat,\n            election: _election\n        }));\n    }\n\n    function totalVotes(uint _election) public view returns (uint nbre) {\n        for (uint i = 0; i < votes.length; i++) {\n            if (votes[i].election == _election) \n                nbre++;\n        }\n    }\n\n    function getVote(uint _election) public view returns (uint) {\n        for (uint i = 0; i < votes.length; i++) {\n            if (votes[i].election == _election && votes[i].electeur == msg.sender) \n                return votes[i].candidat;\n        }\n        return 0;\n    }\n\n    function nbreVotes(uint _election, uint _candidat) public view returns (uint nbre) {\n        for (uint i = 0; i < votes.length; i++) {\n            if (votes[i].election == _election && votes[i].candidat == _candidat) \n                nbre++;\n        }\n    }\n}",
  "sourcePath": "C:\\Users\\Fabmanager\\Coding\\Projects\\vock\\contracts\\Vock.sol",
  "compiler": {
    "name": "solc",
    "version": "0.8.11+commit.d7f03943.Emscripten.clang"
  },
  "schemaVersion": "3.4.4",
  "updatedAt": "2022-02-23T16:45:02.300Z",
  "networkType": "ethereum",
  "devdoc": {
    "kind": "dev",
    "methods": {},
    "version": 1
  },
  "userdoc": {
    "kind": "user",
    "methods": {},
    "version": 1
  }
}